{
  "contractName": "Ownable",
  "abi": [
    {
      "inputs": [],
      "stateMutability": "nonpayable",
      "type": "constructor"
    },
    {
      "anonymous": false,
      "inputs": [
        {
          "indexed": false,
          "internalType": "address",
          "name": "_previousOwner",
          "type": "address"
        },
        {
          "indexed": true,
          "internalType": "address",
          "name": "_newOwner",
          "type": "address"
        }
      ],
      "name": "OwnershipTransferred",
      "type": "event"
    },
    {
      "inputs": [],
      "name": "_owner",
      "outputs": [
        {
          "internalType": "address",
          "name": "",
          "type": "address"
        }
      ],
      "stateMutability": "view",
      "type": "function"
    },
    {
      "inputs": [],
      "name": "isOwner",
      "outputs": [
        {
          "internalType": "bool",
          "name": "",
          "type": "bool"
        }
      ],
      "stateMutability": "view",
      "type": "function"
    },
    {
      "inputs": [
        {
          "internalType": "address",
          "name": "_newOwner",
          "type": "address"
        }
      ],
      "name": "transferOwnership",
      "outputs": [],
      "stateMutability": "nonpayable",
      "type": "function"
    }
  ],
  "bytecode": "0x608060405234801561001057600080fd5b50336000806101000a81548173ffffffffffffffffffffffffffffffffffffffff021916908373ffffffffffffffffffffffffffffffffffffffff160217905550610399806100606000396000f3fe608060405234801561001057600080fd5b50600436106100415760003560e01c80638f32d59b14610046578063b2bdfa7b14610064578063f2fde38b14610082575b600080fd5b61004e61009e565b60405161005b91906102c2565b60405180910390f35b61006c6100f5565b60405161007991906102a7565b60405180910390f35b61009c60048036038101906100979190610220565b610119565b005b60008060009054906101000a900473ffffffffffffffffffffffffffffffffffffffff1673ffffffffffffffffffffffffffffffffffffffff163373ffffffffffffffffffffffffffffffffffffffff1614905090565b60008054906101000a900473ffffffffffffffffffffffffffffffffffffffff1681565b61012161009e565b610160576040517f08c379a0000000000000000000000000000000000000000000000000000000008152600401610157906102dd565b60405180910390fd5b600073ffffffffffffffffffffffffffffffffffffffff168173ffffffffffffffffffffffffffffffffffffffff16141561019a57600080fd5b8073ffffffffffffffffffffffffffffffffffffffff167f8be0079c531659141344cd1fd0a4f28419497f9722a3daafe3b4186f6b6457e060008054906101000a900473ffffffffffffffffffffffffffffffffffffffff1660405161020091906102a7565b60405180910390a250565b60008135905061021a8161034c565b92915050565b60006020828403121561023257600080fd5b60006102408482850161020b565b91505092915050565b6102528161030e565b82525050565b61026181610320565b82525050565b60006102746015836102fd565b91507f596f7520617265206e6f7420746865206f776e657200000000000000000000006000830152602082019050919050565b60006020820190506102bc6000830184610249565b92915050565b60006020820190506102d76000830184610258565b92915050565b600060208201905081810360008301526102f681610267565b9050919050565b600082825260208201905092915050565b60006103198261032c565b9050919050565b60008115159050919050565b600073ffffffffffffffffffffffffffffffffffffffff82169050919050565b6103558161030e565b811461036057600080fd5b5056fea26469706673582212202298927cbad2998e6d1155aa08181308bb2b901070f6a1d364aaaa412bcfc95064736f6c63430008000033",
  "immutableReferences": {},
  "source": "// SPDX-License-Identifier: MIT\npragma solidity >=0.4.22 <0.9.0;\n\n// make sure that only the owner is allowed to do certain functions\ncontract Ownable {\n    address public _owner;\n\n    event OwnershipTransferred(\n        address _previousOwner,\n        address indexed _newOwner\n    );\n\n    constructor() {\n        _owner = msg.sender;\n    }\n\n    modifier onlyOwner() {\n        require(isOwner(), \"You are not the owner\");\n        _;\n    }\n\n    function isOwner() public view returns (bool) {\n        return msg.sender == _owner;\n    }\n\n    function transferOwnership(address _newOwner) public onlyOwner {\n        require(_newOwner != address(0));\n        emit OwnershipTransferred(_owner, _newOwner);\n    }\n}\n",
  "sourcePath": "/Users/varuns/Documents/Casino/src/contracts/Ownable.sol",
  "compiler": {
    "name": "solc",
    "version": "0.8.0+commit.c7dfd78e.Emscripten.clang"
  },
  "schemaVersion": "3.3.4",
  "updatedAt": "2021-04-14T05:24:52.834Z",
  "devdoc": {
    "kind": "dev",
    "methods": {},
    "version": 1
  },
  "userdoc": {
    "kind": "user",
    "methods": {},
    "version": 1
  }
}