{
  "contractName": "VarunContract",
  "abi": [
    {
      "inputs": [
        {
          "internalType": "contract VarunToken",
          "name": "_token",
          "type": "address"
        }
      ],
      "stateMutability": "nonpayable",
      "type": "constructor"
    },
    {
      "inputs": [
        {
          "internalType": "address",
          "name": "",
          "type": "address"
        }
      ],
      "name": "balance",
      "outputs": [
        {
          "internalType": "uint256",
          "name": "",
          "type": "uint256"
        }
      ],
      "stateMutability": "view",
      "type": "function",
      "constant": true
    },
    {
      "inputs": [
        {
          "internalType": "address",
          "name": "",
          "type": "address"
        }
      ],
      "name": "betAmount",
      "outputs": [
        {
          "internalType": "uint256",
          "name": "",
          "type": "uint256"
        }
      ],
      "stateMutability": "view",
      "type": "function",
      "constant": true
    },
    {
      "inputs": [],
      "name": "faucet",
      "outputs": [],
      "stateMutability": "payable",
      "type": "function",
      "payable": true
    },
    {
      "inputs": [],
      "name": "random",
      "outputs": [
        {
          "internalType": "uint256",
          "name": "",
          "type": "uint256"
        }
      ],
      "stateMutability": "view",
      "type": "function",
      "constant": true
    }
  ],
  "bytecode": "0x608060405234801561001057600080fd5b5060405161045f38038061045f8339818101604052810190610032919061008d565b806000806101000a81548173ffffffffffffffffffffffffffffffffffffffff021916908373ffffffffffffffffffffffffffffffffffffffff16021790555050610111565b600081519050610087816100fa565b92915050565b60006020828403121561009f57600080fd5b60006100ad84828501610078565b91505092915050565b60006100c1826100da565b9050919050565b60006100d3826100b6565b9050919050565b600073ffffffffffffffffffffffffffffffffffffffff82169050919050565b610103816100c8565b811461010e57600080fd5b50565b61033f806101206000396000f3fe60806040526004361061003f5760003560e01c806334aa7e00146100445780635ec01e4d14610081578063de5f72fd146100ac578063e3d670d7146100b6575b600080fd5b34801561005057600080fd5b5061006b600480360381019061006691906101d9565b6100f3565b604051610078919061023b565b60405180910390f35b34801561008d57600080fd5b5061009661010b565b6040516100a3919061023b565b60405180910390f35b6100b461011f565b005b3480156100c257600080fd5b506100dd60048036038101906100d891906101d9565b6101ac565b6040516100ea919061023b565b60405180910390f35b60016020528060005260406000206000915090505481565b600060024361011a9190610292565b905090565b60008054906101000a900473ffffffffffffffffffffffffffffffffffffffff1673ffffffffffffffffffffffffffffffffffffffff1663b86d1d63336040518263ffffffff1660e01b81526004016101789190610220565b600060405180830381600087803b15801561019257600080fd5b505af11580156101a6573d6000803e3d6000fd5b50505050565b60026020528060005260406000206000915090505481565b6000813590506101d3816102f2565b92915050565b6000602082840312156101eb57600080fd5b60006101f9848285016101c4565b91505092915050565b61020b81610256565b82525050565b61021a81610288565b82525050565b60006020820190506102356000830184610202565b92915050565b60006020820190506102506000830184610211565b92915050565b600061026182610268565b9050919050565b600073ffffffffffffffffffffffffffffffffffffffff82169050919050565b6000819050919050565b600061029d82610288565b91506102a883610288565b9250826102b8576102b76102c3565b5b828206905092915050565b7f4e487b7100000000000000000000000000000000000000000000000000000000600052601260045260246000fd5b6102fb81610256565b811461030657600080fd5b5056fea2646970667358221220cc7ff1108722720c722b8c26fe41529cfea8ba8cc1eea122df1c063609b446d064736f6c63430008000033",
  "immutableReferences": {},
  "source": "pragma solidity >=0.6.0;\nimport \"./VarunToken.sol\";\n\ncontract VarunContract {\n    VarunToken token;\n    mapping(address => uint256) public betAmount;\n    mapping(address => uint256) public balance;\n\n    uint256 betOn;\n\n    constructor(VarunToken _token) {\n        token = _token;\n        // balance = address(this).balance;\n    }\n\n    function faucet() public payable {\n        token.faucet(msg.sender);\n    }\n\n    /**\n     *\n     *\n     */\n    // function bet(uint256 _amount, uint256 _betOn) public payable {\n    //     require(bettor == msg.sender);\n    //     betAmount[msg.sender] = _amount;\n    //     betOn = _betOn;\n    //     getResult();\n    // }\n\n    // function getResult() public payable {\n    //     uint256 result = random();\n    //     if (betOn == result) {\n    //         bettor.transfer(betAmount[bettor]);\n    //     }\n    // }\n\n    function random() public view returns (uint256) {\n        // Not secure, use ChainLink in production\n        return (block.number % 2);\n    }\n}\n",
  "sourcePath": "/Users/varuns/Documents/Casino/src/contracts/VarunContract.sol",
  "compiler": {
    "name": "solc",
    "version": "0.8.0+commit.c7dfd78e.Emscripten.clang"
  },
  "schemaVersion": "3.3.4",
  "updatedAt": "2021-04-15T06:53:02.533Z",
  "networkType": "ethereum",
  "devdoc": {
    "kind": "dev",
    "methods": {},
    "version": 1
  },
  "userdoc": {
    "kind": "user",
    "methods": {},
    "version": 1
  }
}