{
  "contractName": "VarunToken",
  "abi": [
    {
      "inputs": [],
      "stateMutability": "nonpayable",
      "type": "constructor"
    },
    {
      "anonymous": false,
      "inputs": [
        {
          "indexed": true,
          "internalType": "address",
          "name": "_owner",
          "type": "address"
        },
        {
          "indexed": true,
          "internalType": "address",
          "name": "_spender",
          "type": "address"
        },
        {
          "indexed": false,
          "internalType": "uint256",
          "name": "_value",
          "type": "uint256"
        }
      ],
      "name": "Approval",
      "type": "event"
    },
    {
      "anonymous": false,
      "inputs": [
        {
          "indexed": false,
          "internalType": "address",
          "name": "borrower",
          "type": "address"
        },
        {
          "indexed": false,
          "internalType": "uint256",
          "name": "timestamp",
          "type": "uint256"
        }
      ],
      "name": "Faucet",
      "type": "event"
    },
    {
      "anonymous": false,
      "inputs": [
        {
          "indexed": true,
          "internalType": "address",
          "name": "_from",
          "type": "address"
        },
        {
          "indexed": true,
          "internalType": "address",
          "name": "_to",
          "type": "address"
        },
        {
          "indexed": false,
          "internalType": "uint256",
          "name": "_value",
          "type": "uint256"
        }
      ],
      "name": "Transfer",
      "type": "event"
    },
    {
      "inputs": [],
      "name": "_totalSupply",
      "outputs": [
        {
          "internalType": "uint256",
          "name": "",
          "type": "uint256"
        }
      ],
      "stateMutability": "view",
      "type": "function",
      "constant": true
    },
    {
      "inputs": [
        {
          "internalType": "address",
          "name": "",
          "type": "address"
        },
        {
          "internalType": "address",
          "name": "",
          "type": "address"
        }
      ],
      "name": "allowed",
      "outputs": [
        {
          "internalType": "uint256",
          "name": "",
          "type": "uint256"
        }
      ],
      "stateMutability": "view",
      "type": "function",
      "constant": true
    },
    {
      "inputs": [
        {
          "internalType": "address",
          "name": "",
          "type": "address"
        }
      ],
      "name": "balances",
      "outputs": [
        {
          "internalType": "uint256",
          "name": "",
          "type": "uint256"
        }
      ],
      "stateMutability": "view",
      "type": "function",
      "constant": true
    },
    {
      "inputs": [],
      "name": "decimals",
      "outputs": [
        {
          "internalType": "uint8",
          "name": "",
          "type": "uint8"
        }
      ],
      "stateMutability": "view",
      "type": "function",
      "constant": true
    },
    {
      "inputs": [],
      "name": "name",
      "outputs": [
        {
          "internalType": "string",
          "name": "",
          "type": "string"
        }
      ],
      "stateMutability": "view",
      "type": "function",
      "constant": true
    },
    {
      "inputs": [],
      "name": "symbol",
      "outputs": [
        {
          "internalType": "string",
          "name": "",
          "type": "string"
        }
      ],
      "stateMutability": "view",
      "type": "function",
      "constant": true
    },
    {
      "inputs": [
        {
          "internalType": "address",
          "name": "_tokenOwner",
          "type": "address"
        }
      ],
      "name": "balanceOf",
      "outputs": [
        {
          "internalType": "uint256",
          "name": "",
          "type": "uint256"
        }
      ],
      "stateMutability": "view",
      "type": "function",
      "constant": true
    },
    {
      "inputs": [],
      "name": "totalSupply",
      "outputs": [
        {
          "internalType": "uint256",
          "name": "",
          "type": "uint256"
        }
      ],
      "stateMutability": "view",
      "type": "function",
      "constant": true
    },
    {
      "inputs": [
        {
          "internalType": "address",
          "name": "_tokenOwner",
          "type": "address"
        },
        {
          "internalType": "address",
          "name": "_spender",
          "type": "address"
        }
      ],
      "name": "allowance",
      "outputs": [
        {
          "internalType": "uint256",
          "name": "remaining",
          "type": "uint256"
        }
      ],
      "stateMutability": "view",
      "type": "function",
      "constant": true
    },
    {
      "inputs": [
        {
          "internalType": "address",
          "name": "_borrower",
          "type": "address"
        }
      ],
      "name": "faucet",
      "outputs": [],
      "stateMutability": "payable",
      "type": "function",
      "payable": true
    },
    {
      "inputs": [
        {
          "internalType": "address",
          "name": "_to",
          "type": "address"
        },
        {
          "internalType": "uint256",
          "name": "_value",
          "type": "uint256"
        }
      ],
      "name": "transfer",
      "outputs": [
        {
          "internalType": "bool",
          "name": "success",
          "type": "bool"
        }
      ],
      "stateMutability": "nonpayable",
      "type": "function"
    },
    {
      "inputs": [
        {
          "internalType": "address",
          "name": "_from",
          "type": "address"
        },
        {
          "internalType": "address",
          "name": "_to",
          "type": "address"
        },
        {
          "internalType": "uint256",
          "name": "_value",
          "type": "uint256"
        }
      ],
      "name": "transferFrom",
      "outputs": [
        {
          "internalType": "bool",
          "name": "success",
          "type": "bool"
        }
      ],
      "stateMutability": "nonpayable",
      "type": "function"
    }
  ],
  "bytecode": "0x60806040526040518060400160405280600a81526020017f566172756e546f6b656e0000000000000000000000000000000000000000000081525060009080519060200190620000519291906200018e565b506040518060400160405280600381526020017f5654430000000000000000000000000000000000000000000000000000000000815250600190805190602001906200009f9291906200018e565b5069d3c21bcecceda10000006002556012600360006101000a81548160ff021916908360ff160217905550348015620000d757600080fd5b50600254600460003373ffffffffffffffffffffffffffffffffffffffff1673ffffffffffffffffffffffffffffffffffffffff168152602001908152602001600020819055503373ffffffffffffffffffffffffffffffffffffffff16600073ffffffffffffffffffffffffffffffffffffffff167fddf252ad1be2c89b69c2b068fc378daa952ba7f163c4a11628f55a4df523b3ef6002546040516200018091906200024f565b60405180910390a3620002db565b8280546200019c9062000276565b90600052602060002090601f016020900481019282620001c057600085556200020c565b82601f10620001db57805160ff19168380011785556200020c565b828001600101855582156200020c579182015b828111156200020b578251825591602001919060010190620001ee565b5b5090506200021b91906200021f565b5090565b5b808211156200023a57600081600090555060010162000220565b5090565b62000249816200026c565b82525050565b60006020820190506200026660008301846200023e565b92915050565b6000819050919050565b600060028204905060018216806200028f57607f821691505b60208210811415620002a657620002a5620002ac565b5b50919050565b7f4e487b7100000000000000000000000000000000000000000000000000000000600052602260045260246000fd5b610eb780620002eb6000396000f3fe6080604052600436106100a75760003560e01c80635c658165116100645780635c658165146101d257806370a082311461020f57806395d89b411461024c578063a9059cbb14610277578063b86d1d63146102b4578063dd62ed3e146102d0576100a7565b806306fdde03146100ac57806318160ddd146100d757806323b872dd1461010257806327e235e31461013f578063313ce5671461017c5780633eaaf86b146101a7575b600080fd5b3480156100b857600080fd5b506100c161030d565b6040516100ce9190610c2c565b60405180910390f35b3480156100e357600080fd5b506100ec61039b565b6040516100f99190610c4e565b60405180910390f35b34801561010e57600080fd5b5061012960048036038101906101249190610ae8565b6103ef565b6040516101369190610c11565b60405180910390f35b34801561014b57600080fd5b5061016660048036038101906101619190610a83565b610675565b6040516101739190610c4e565b60405180910390f35b34801561018857600080fd5b5061019161068d565b60405161019e9190610c69565b60405180910390f35b3480156101b357600080fd5b506101bc6106a0565b6040516101c99190610c4e565b60405180910390f35b3480156101de57600080fd5b506101f960048036038101906101f49190610aac565b6106a6565b6040516102069190610c4e565b60405180910390f35b34801561021b57600080fd5b5061023660048036038101906102319190610a83565b6106cb565b6040516102439190610c4e565b60405180910390f35b34801561025857600080fd5b50610261610714565b60405161026e9190610c2c565b60405180910390f35b34801561028357600080fd5b5061029e60048036038101906102999190610b37565b6107a2565b6040516102ab9190610c11565b60405180910390f35b6102ce60048036038101906102c99190610a83565b61090b565b005b3480156102dc57600080fd5b506102f760048036038101906102f29190610aac565b6109d2565b6040516103049190610c4e565b60405180910390f35b6000805461031a90610db2565b80601f016020809104026020016040519081016040528092919081815260200182805461034690610db2565b80156103935780601f1061036857610100808354040283529160200191610393565b820191906000526020600020905b81548152906001019060200180831161037657829003601f168201915b505050505081565b6000600460008073ffffffffffffffffffffffffffffffffffffffff1673ffffffffffffffffffffffffffffffffffffffff168152602001908152602001600020546002546103ea9190610cf6565b905090565b6000600460008573ffffffffffffffffffffffffffffffffffffffff1673ffffffffffffffffffffffffffffffffffffffff1681526020019081526020016000205482111561043d57600080fd5b600560008573ffffffffffffffffffffffffffffffffffffffff1673ffffffffffffffffffffffffffffffffffffffff16815260200190815260200160002060003373ffffffffffffffffffffffffffffffffffffffff1673ffffffffffffffffffffffffffffffffffffffff168152602001908152602001600020548211156104c657600080fd5b81600460008673ffffffffffffffffffffffffffffffffffffffff1673ffffffffffffffffffffffffffffffffffffffff16815260200190815260200160002060008282546105159190610cf6565b9250508190555081600460008573ffffffffffffffffffffffffffffffffffffffff1673ffffffffffffffffffffffffffffffffffffffff168152602001908152602001600020600082825461056b9190610ca0565b9250508190555081600560008673ffffffffffffffffffffffffffffffffffffffff1673ffffffffffffffffffffffffffffffffffffffff16815260200190815260200160002060003373ffffffffffffffffffffffffffffffffffffffff1673ffffffffffffffffffffffffffffffffffffffff16815260200190815260200160002060008282546105fe9190610cf6565b925050819055508273ffffffffffffffffffffffffffffffffffffffff168473ffffffffffffffffffffffffffffffffffffffff167fddf252ad1be2c89b69c2b068fc378daa952ba7f163c4a11628f55a4df523b3ef846040516106629190610c4e565b60405180910390a3600190509392505050565b60046020528060005260406000206000915090505481565b600360009054906101000a900460ff1681565b60025481565b6005602052816000526040600020602052806000526040600020600091509150505481565b6000600460008373ffffffffffffffffffffffffffffffffffffffff1673ffffffffffffffffffffffffffffffffffffffff168152602001908152602001600020549050919050565b6001805461072190610db2565b80601f016020809104026020016040519081016040528092919081815260200182805461074d90610db2565b801561079a5780601f1061076f5761010080835404028352916020019161079a565b820191906000526020600020905b81548152906001019060200180831161077d57829003601f168201915b505050505081565b600081600460003373ffffffffffffffffffffffffffffffffffffffff1673ffffffffffffffffffffffffffffffffffffffff1681526020019081526020016000205410156107f057600080fd5b81600460003373ffffffffffffffffffffffffffffffffffffffff1673ffffffffffffffffffffffffffffffffffffffff168152602001908152602001600020600082825461083f9190610cf6565b9250508190555081600460008573ffffffffffffffffffffffffffffffffffffffff1673ffffffffffffffffffffffffffffffffffffffff16815260200190815260200160002060008282546108959190610ca0565b925050819055508273ffffffffffffffffffffffffffffffffffffffff163373ffffffffffffffffffffffffffffffffffffffff167fddf252ad1be2c89b69c2b068fc378daa952ba7f163c4a11628f55a4df523b3ef846040516108f99190610c4e565b60405180910390a36001905092915050565b620f4240600460008373ffffffffffffffffffffffffffffffffffffffff1673ffffffffffffffffffffffffffffffffffffffff1681526020019081526020016000208190555042600660008373ffffffffffffffffffffffffffffffffffffffff1673ffffffffffffffffffffffffffffffffffffffff168152602001908152602001600020819055507f1c5347d1e37925b93058518c26d7daabe45f0a3227e8d058aaf3682960eb2b9481426040516109c7929190610be8565b60405180910390a150565b6000600560008473ffffffffffffffffffffffffffffffffffffffff1673ffffffffffffffffffffffffffffffffffffffff16815260200190815260200160002060008373ffffffffffffffffffffffffffffffffffffffff1673ffffffffffffffffffffffffffffffffffffffff16815260200190815260200160002054905092915050565b600081359050610a6881610e53565b92915050565b600081359050610a7d81610e6a565b92915050565b600060208284031215610a9557600080fd5b6000610aa384828501610a59565b91505092915050565b60008060408385031215610abf57600080fd5b6000610acd85828601610a59565b9250506020610ade85828601610a59565b9150509250929050565b600080600060608486031215610afd57600080fd5b6000610b0b86828701610a59565b9350506020610b1c86828701610a59565b9250506040610b2d86828701610a6e565b9150509250925092565b60008060408385031215610b4a57600080fd5b6000610b5885828601610a59565b9250506020610b6985828601610a6e565b9150509250929050565b610b7c81610d2a565b82525050565b610b8b81610d3c565b82525050565b6000610b9c82610c84565b610ba68185610c8f565b9350610bb6818560208601610d7f565b610bbf81610e42565b840191505092915050565b610bd381610d68565b82525050565b610be281610d72565b82525050565b6000604082019050610bfd6000830185610b73565b610c0a6020830184610bca565b9392505050565b6000602082019050610c266000830184610b82565b92915050565b60006020820190508181036000830152610c468184610b91565b905092915050565b6000602082019050610c636000830184610bca565b92915050565b6000602082019050610c7e6000830184610bd9565b92915050565b600081519050919050565b600082825260208201905092915050565b6000610cab82610d68565b9150610cb683610d68565b9250827fffffffffffffffffffffffffffffffffffffffffffffffffffffffffffffffff03821115610ceb57610cea610de4565b5b828201905092915050565b6000610d0182610d68565b9150610d0c83610d68565b925082821015610d1f57610d1e610de4565b5b828203905092915050565b6000610d3582610d48565b9050919050565b60008115159050919050565b600073ffffffffffffffffffffffffffffffffffffffff82169050919050565b6000819050919050565b600060ff82169050919050565b60005b83811015610d9d578082015181840152602081019050610d82565b83811115610dac576000848401525b50505050565b60006002820490506001821680610dca57607f821691505b60208210811415610dde57610ddd610e13565b5b50919050565b7f4e487b7100000000000000000000000000000000000000000000000000000000600052601160045260246000fd5b7f4e487b7100000000000000000000000000000000000000000000000000000000600052602260045260246000fd5b6000601f19601f8301169050919050565b610e5c81610d2a565b8114610e6757600080fd5b50565b610e7381610d68565b8114610e7e57600080fd5b5056fea26469706673582212205630f36840eeb6d843464d5763f8887df6b6e69364eece09a8f9165f2856a8b364736f6c63430008000033",
  "immutableReferences": {},
  "source": "pragma solidity >=0.6.0;\nimport \"./SafeMath.sol\";\n\ncontract VarunToken {\n    //instantiate\n    string public name = \"VarunToken\";\n    string public symbol = \"VTC\";\n    uint256 public _totalSupply = 1000000000000000000000000;\n    uint8 public decimals = 18;\n\n    mapping(address => uint256) public balances;\n    mapping(address => mapping(address => uint256)) public allowed;\n    mapping(address => uint256) timestamp;\n\n    event Transfer(address indexed _from, address indexed _to, uint256 _value);\n\n    event Approval(\n        address indexed _owner,\n        address indexed _spender,\n        uint256 _value\n    );\n\n    event Faucet(address borrower, uint256 timestamp);\n\n    constructor() public {\n        balances[msg.sender] = _totalSupply;\n        emit Transfer(address(0), msg.sender, _totalSupply);\n    }\n\n    function balanceOf(address _tokenOwner) public view returns (uint256) {\n        return balances[_tokenOwner];\n    }\n\n    function totalSupply() public view returns (uint256) {\n        return _totalSupply - balances[address(0)];\n    }\n\n    function allowance(address _tokenOwner, address _spender)\n        public\n        view\n        returns (uint256 remaining)\n    {\n        return allowed[_tokenOwner][_spender];\n    }\n\n    function faucet(address _borrower) public payable {\n        balances[_borrower] = 1000000;\n        timestamp[_borrower] = block.timestamp;\n        emit Faucet(_borrower, block.timestamp);\n    }\n\n    function transfer(address _to, uint256 _value)\n        public\n        returns (bool success)\n    {\n        require(balances[msg.sender] >= _value);\n\n        balances[msg.sender] -= _value;\n        balances[_to] += _value;\n\n        emit Transfer(msg.sender, _to, _value);\n        return true;\n    }\n\n    function transferFrom(\n        address _from,\n        address _to,\n        uint256 _value\n    ) public returns (bool success) {\n        require(_value <= balances[_from]);\n        require(_value <= allowed[_from][msg.sender]);\n\n        balances[_from] -= _value;\n        balances[_to] += _value;\n        allowed[_from][msg.sender] -= _value;\n        emit Transfer(_from, _to, _value);\n        return true;\n    }\n}\n",
  "sourcePath": "/Users/varuns/Documents/Casino/src/contracts/VarunToken.sol",
  "compiler": {
    "name": "solc",
    "version": "0.8.0+commit.c7dfd78e.Emscripten.clang"
  },
  "schemaVersion": "3.3.4",
  "updatedAt": "2021-04-15T06:53:02.538Z",
  "networkType": "ethereum",
  "devdoc": {
    "kind": "dev",
    "methods": {},
    "version": 1
  },
  "userdoc": {
    "kind": "user",
    "methods": {},
    "version": 1
  }
}